:020000040800F2
:10000000480700208901000879160008DD12000861
:100010000D150008E3020008F119000800000000B7
:100020000000000000000000000000007D16000835
:10003000E5020008000000007B1600087F1600089B
:10004000A3010008A3010008A3010008A301000800
:10005000A3010008A3010008A3010008A3010008F0
:10006000A3010008A3010008A3010008A3010008E0
:10007000A3010008A3010008A3010008A3010008D0
:10008000A3010008A3010008A3010008A3010008C0
:10009000A3010008A3010008A3010008A3010008B0
:1000A000A3010008A3010008A3010008A3010008A0
:1000B000A3010008A3010008A3010008A301000890
:1000C000A3010008A3010008A3010008A301000880
:1000D000A3010008A3010008A3010008A301000870
:1000E000A3010008A3010008A301000800F002F822
:1000F00000F03AF80AA090E8000C82448344AAF188
:100100000107DA4501D100F02FF8AFF2090EBAE885
:100110000F0013F0010F18BFFB1A43F0010318473B
:10012000F4190000141A0000103A24BF78C878C1EE
:10013000FAD8520724BF30C830C144BF04680C60ED
:10014000704700000023002400250026103A28BF35
:1001500078C1FBD8520728BF30C148BF0B60704739
:100160001FB51FBD10B510BD00F058F81146FFF7C0
:10017000F7FF01F04FFC00F076F803B4FFF7F2FF51
:1001800003BC00F07BF8000009488047094800479D
:10019000FEE7FEE7FEE7FEE7FEE7FEE7FEE7FEE737
:1001A000FEE7FEE704480549054A064B7047000094
:1001B000FB160008ED000008480100204807002059
:1001C00048030020480300204FF0000200B513460A
:1001D00094469646203922BFA0E80C50A0E80C5067
:1001E000B1F12001BFF4F7AF090728BFA0E80C5018
:1001F00048BF0CC05DF804EB890028BF40F8042B11
:1002000008BF704748BF20F8022B11F0804F18BF7D
:1002100000F8012B7047704770477047754600F033
:1002200029F8AE4605006946534620F0070085468A
:1002300018B020B5FFF7B6FFBDE820404FF000062C
:100240004FF000074FF000084FF0000B21F00701BE
:10025000AC46ACE8C009ACE8C009ACE8C009ACE801
:10026000C0098D4670470446AFF300802046FFF773
:1002700084FF000000487047E40000200149182076
:10028000ABBEFEE7260002007047000070B50446D2
:1002900000688168C943C90717D1816821F001014D
:1002A000816000F067FA05460AE000BF00F062FADC
:1002B000401B022804D920688068C043C00706D0CC
:1002C00020688068C043C007F0D0002070BDA06ADD
:1002D00040F01000A062E06A40F00100E0620120FE
:1002E00070BDFEE7704772B6FEE70000F8B5002467
:1002F000009490F824202546012A12D0012280F88B
:1003000024204A681F23072A0DD20668776B521EE5
:1003100002EB820293409F430B6893401F43776335
:1003200019E00220F8BD06680D2A0AD2376BD21FE9
:1003300002EB820293409F430B6893401F43376355
:1003400009E0F76A0D3A02EB820293409F430B6883
:1003500093401F43F7620A68072306680A2A0AD3F4
:10036000F7680A3A02EB420293409F438B6893403E
:100370001F43F76008E0376902EB420293409F4356
:100380008B6893401F4337610A68102A01D0112AF5
:1003900020D1124B02689A4217D193681B0219D4DC
:1003A000936843F4000393600968102912D10C4943
:1003B0000C4A0968B1FBF2F101EB8101490000E050
:1003C000491E00910029FBD104E0816A41F020011F
:1003D0008162012480F824502046F8BD00240140A9
:1003E0002000002040420F002DE9F0414FF00007AF
:1003F00004003D467ED0A06A002628B9E66284F853
:100400002460204600F07EF82046FFF73FFFA16AF7
:1004100001F01001014304D0A06A40F01000A06276
:1004200068E0A16A21F4885141F00201A16262688A
:10043000E169237B0A4347EA43010A43A1684FF479
:100440008077B94208D0012906D0002194F814C061
:10045000BCF1010F02D00AE03946F7E7F3B1A36A15
:1004600043F02003A362E36A43F00103E3622368DD
:10047000D3F804C02CF4694C4CEA010CC3F804C056
:1004800023689968DFF870C001EA0C011143996094
:10049000A168B9420BD0012909D00CE0DFF85CC09B
:1004A000A3690CEB43330B4343F40061DFE7218A7C
:1004B0000D05A5F580152168CB6A23F470032B4345
:1004C000CB62216889680E4B1940914208D1E662DF
:1004D000A16A21F0020141F00101A162BDE8F081B1
:1004E000A06A20F0020040F01000A062E06A40F034
:1004F0000100E0620120F1E7FDF7E1FF00E0FFFF0E
:10050000FE0E1FFF00B585B0002100910191029100
:10051000039100680E49884218D10E48816941F460
:1005200000718161816901F400710491816941F078
:10053000040181618069694600F004000490602034
:10054000009003200190044800F01AF805B000BDA7
:1005500000240140001002400008014070B504462C
:1005600000F008F90546601C02D0044800780444F5
:1005700000F000F9401BA042FAD370BD1400002027
:100580002DE9F84FDFF8B8910024A9F1040B2346B8
:100590000F2709F1040AABF1040EC9E00125A540BB
:1005A0002A40AA427DD1674ED1F804C0ACEB0608C0
:1005B000B44532D014DCBCF1030F3AD009DCBCF1F5
:1005C000000F2AD0BCF1010F1CD0BCF1020F31D1B9
:1005D0001DE0BCF1110F17D0BCF1120F2AD119E0A8
:1005E000B8F5881F19D006DCB8F5803F15D0B8F5EE
:1005F000801F1FD111E0B8F5001F0ED0B8F5041F01
:1006000018D10AE0CB6815E0CB681B1D12E0CB685F
:1006100008330FE0CB680C330CE08B682BB1012B57
:100620004FF0080303D0456104E0042302E00561B4
:1006300000E00023FF2A01D8064601E000F104068D
:100640004FEA840501D9A5F12005D6F8008007FA04
:1006500005FC28EA0C0803FA05F548EA0508C6F87F
:1006600000804D68ED0062D5374DAE6946F0010659
:10067000AE61AD6924F0030605F001050095334D28
:1006800006EB050CDCF80850A607360F07FA06F84B
:1006900025EA0805DFF8B880404503D14FF000088F
:1006A00017E044E0DFF8AC80404502D14FF001088C
:1006B0000FE0DFF8A480404502D14FF0020808E0C7
:1006C000DFF89880404502D14FF0030801E04FF079
:1006D000040808FA06F848EA0508CCF808804D68CE
:1006E000D9F80060ED024D4601D5164300E096436F
:1006F0002E604D68DAF80060AD02554601D516430C
:1007000000E096432E604D68DBF80060AD035D4667
:1007100001D5164300E096432E604D68DEF8006078
:10072000ED03754601D5164300E096432E60641C28
:100730000D682A46E5407FF431AFBDE8F88F000030
:1007400008040140000011100010024000000140A8
:1007500000080140000C014000100140001401405D
:100760008068084000D0012070470AB101617047DD
:100770000904FBE70148806870470000140000206E
:10078000024881680278114481607047140000209B
:10079000074810B5016841F010010160032000F026
:1007A00067F80F2000F006F800F024F8002010BDD4
:1007B0000020024070B50D4D04464FF47A71287840
:1007C000B1FBF0F00A490968B1FBF0F000F026FB3C
:1007D00048B9102C07D200222146501E00F028F8FC
:1007E00000206C6070BD012070BD0000140000206E
:1007F000200000200C4808B5816941F001018161A9
:10080000816901F001010091C16941F08051C1612C
:10081000C06900F0805000900448416821F0E06118
:1008200041F00071416008BD00100240000001402D
:10083000F0B40E4B1B680C46C3F30223C3F107054B
:10084000042D00D90425191D072901D2002300E039
:10085000DB1E012606FA05F1491E214099409E4003
:10086000761E16403143F0BC01F0C3B80CED00E039
:10087000064900F0070208684FF6FF03184040EAF7
:100880000220034A10430860704700000CED00E0AE
:100890000000FA052DE9F84305460078354CC007FD
:1008A00054D0E0690026C00008D4E06940F08050D0
:1008B000E061E069012600F0805000902E48016858
:1008C000C90512D40168804641F480710160FFF7C8
:1008D00051FF074605E000BFFFF74CFFC01B64282F
:1008E00023D8D8F80000C005F6D5206A10F440706F
:1008F00021D0A98801F4407181421CD0206A1F498F
:10090000012220F440700A6000220A602062C007C1
:1009100011D0FFF72FFF074641F2883808E000BFEB
:10092000FFF728FFC11B414502D90320BDE8F8832A
:10093000206A8007F4D5206A696820F44070084373
:1009400020621EB1E06920F08050E06128788007C5
:1009500005D56068A96820F44040084360602878A5
:10096000C00605D56068E96820F48000084360602F
:100970000020DBE7001002400070004040044242CB
:100980002DE9F0470F46050061D0434E306800F076
:100990000700B84209D2306820F0070038433060C1
:1009A000306800F00700B84251D128683B4C8107FD
:1009B00012D5400703D5606840F4E0606060287895
:1009C000000703D5606840F4605060606068A96803
:1009D00020F0F000084360602878C00728D06868DD
:1009E000012810D02168022810D0890700292EDAAA
:1009F000616821F0030101436160FFF7BBFE80469F
:100A000041F288390DE021688903EFE78901EDE7BC
:100A1000FFF7B0FEA0EB0801494502D90320BDE86D
:100A2000F0876068696800F00C00B0EB810FEFD1CF
:100A3000306800F00700B8420BD9306820F007009A
:100A400038433060306800F00700B84201D0012020
:100A5000E5E72878400705D56068E96820F4E0609C
:100A6000084360602878000706D56068296920F48B
:100A7000605040EAC100606000F018F86168084A00
:100A8000C1F30311515CC84006490860064800687C
:100A9000FFF790FE0020C2E7002002400010024055
:100AA000021B000820000020180000200F4A516897
:100AB00001F00C00042803D0082803D00C4870472C
:100AC0000C4870470C48C1F38343C903C05C0AD586
:100AD0005168094AC1F34041921E515C054A504396
:100AE000B0FBF1F0704703494843704700100240E3
:100AF00000127A0000093D00F21A00082DE9F84FB3
:100B0000040070D02078C04DC00749D06868C0F399
:100B10008100012807D06868C0F38100022809D14C
:100B20006868C00306D52868800339D56068002846
:100B3000E7D035E06068B0F5803F0BD010B1B0F57C
:100B4000A02F11D0286820F480302860286820F475
:100B5000802002E0286840F480302860606890B10E
:100B6000FFF708FE06460AE0286840F48020286067
:100B7000F0E700BFFFF7FEFD801B642873D82868EC
:100B80008003F7D50CE0FFF7F5FD064605E000BF52
:100B9000FFF7F0FD801B6428F0D828688003F7D4A5
:100BA00020789A4E80074FF001094FF0000839D5A0
:100BB000686810F00C0F07D06868C0F38100022845
:100BC00009D16868C00306D42868800714D5206955
:100BD000012808D110E02069B0B1C6F80090FFF7F5
:100BE000C9FD074605E00AE1FFF7C4FDC01B022866
:100BF000C4D828688007F7D52868616920F0F80014
:100C000040EAC10028600DE0C6F80080FFF7B2FDA1
:100C1000074604E0FFF7AEFDC01B022823D8286872
:100C20008007F7D4207800072CD57948A169D9B17D
:100C3000C0F80090FFF79EFD074604E0FFF79AFD1D
:100C4000C01B02280FD8686A8007F7D571484FF497
:100C5000FA510068B0FBF1F0009000BF0098411E0F
:100C60000091FAD20EE080E0C0F80080FFF782FD2C
:100C7000074604E0FFF77EFDC01B022875D8686AAE
:100C80008007F7D42078400760D5E8690027C000C6
:100C900008D4E86940F08050E861E869012700F075
:100CA000805000905C480168C90513D401688346F0
:100CB00041F480710160FFF75DFD824606E000BFF0
:100CC000FFF758FDA0EB0A0064284ED8DBF80000BF
:100CD000C005F5D5E06801280AD008B1052813D071
:100CE000286A20F001002862286A20F0040002E04F
:100CF000286A40F001002862E06841F2883B98B120
:100D0000FFF738FD82460BE0286A40F004002862B5
:100D1000EEE700BFFFF72EFDA0EB0A0159455AD8B8
:100D2000286A8007F6D50CE0FFF724FD824605E02F
:100D3000FFF720FDA0EB0A0159454CD8286A80072F
:100D4000F6D41FB1E86920F08050E861E06988B30B
:100D50006968C1F38101022944D00228C6F8608085
:100D600004D0FFF707FD044638E034E0FFF702FD4A
:100D7000074604E0FFF7FEFCC01B02282BD82868BA
:100D80008001F7D4206AB0F5803F05D16868A1687A
:100D900020F4003008436860D4E90801084369681A
:100DA00021F4741108436860C6F86090FFF7E2FC14
:100DB000044606E025E000BFFFF7DCFC001B02282C
:100DC00009D828688001F7D51BE000BFFFF7D2FCE7
:100DD000001B022802D90320BDE8F88F2868800193
:100DE000F4D40EE00128F7D06868226A00F480315C
:100DF000914204D1616A00F47010884201D0012050
:100E0000EAE70020E8E7000000100240000042424C
:100E100080044242200000200070004010B5401EB7
:100E2000B0F1807F01D3012010BD4FF0E02460615C
:100E30000F21601700F0DDFD0020A0610720206178
:100E4000002010BD70B590F83C20012A26D0012466
:100E500080F83C40022280F83D2003685A689D6873
:100E600022F070060A6832435A600D4B02689A42BB
:100E700008D0B2F1804F05D00A4B9A4202D00A4BFB
:100E80009A4204D1496825F080031943916080F8A3
:100E90003D40002180F83C10084670BD022070BD26
:100EA000002C0140000400400008004010B5040080
:100EB00003D094F83D0010B107E0012010BD0020E0
:100EC00084F83C00204600F01FF8022084F83D0022
:100ED000211D206800F012FC012084F8460084F8EF
:100EE0003E0084F83F0084F8400084F8410084F814
:100EF000420084F8430084F8440084F8450084F8F4
:100F00003D00002010BD000008B501680B48B1F19C
:100F1000804F0BD00A4A914207D1C16941F00201CA
:100F2000C161C06900F00200009008BDC16941F0D4
:100F30000101C161C06900F00100F5E70010024045
:100F40000004004070B5044690F83C0000250128DC
:100F500017D0012684F83C60022084F83D00206808
:100F6000826822F0770222F47F428260086850286B
:100F700038D00DDC20284FD005DC90B3102811D1DB
:100F80004AE0022070BD302846D040280AD13BE01C
:100F900060282FD070280DD0B0F5805F03D0B0F559
:100FA000005F12D0012584F83D60002084F83C00E9
:100FB000284670BDCB68D1E90121206800F0E7FB2D
:100FC0002068816841F0770109E0CB68D1E901210F
:100FD000206800F0DCFB2068816841F4804181607A
:100FE000E1E719E0CA684968206800F085FC5021F3
:100FF000206806E0CA684968206800F08EFC60211D
:10100000206800F0CEFBCEE7CA684968206800F08F
:1010100073FC40212068F4E7226801461046F0E79F
:1010200010B586B0002100910191029103910368EF
:10103000194902221948B3F1804F12D0184CA3422B
:101040000DD18B6943F008038B618969009201F02F
:1010500008010192CDE903216946FFF791FA06B034
:1010600010BD8B6943F008038B618969039201F01D
:10107000080104914FF40061CDE900126946FFF7C1
:101080007FFA0848416821F4407141F0E06141F481
:1010900000714160E3E7000000100240000C0140D5
:1010A000000400400000014070B5044690F83C0088
:1010B00000260D4601280FD0012084F83C006AB1BB
:1010C000042A1DD0082A2FD00C2A3FD00126002048
:1010D00084F83C00304670BD022070BD206800F0EE
:1010E00069FB2068816941F008018161206881699C
:1010F00021F004018161206881692A69114311E0AE
:10110000206800F07FFB2068816941F40061816103
:101110002068816921F480618161206881692A6980
:1011200041EA02218161D2E7206800F097FB206844
:10113000C16941F00801C1612068C16921F0040161
:10114000C1612068C1692A69114311E0206800F07B
:10115000B1FB2068C16941F40061C1612068C169C7
:1011600021F48061C1612068C1692A6941EA0221D4
:10117000C161ACE710B5040003D094F83D0010B194
:1011800007E0012010BD002084F83C00204600F05C
:101190001EF8022084F83D00211D206800F0AEFA00
:1011A000012084F8460084F83E0084F83F0084F86B
:1011B000400084F8410084F8420084F8430084F839
:1011C000440084F8450084F83D00002010BD7047BD
:1011D00010B50446022249B104290ED0082913D0C3
:1011E00094F84100012816D0012010BD94F83E006B
:1011F0000128F9D184F83E200FE094F83F0001283F
:10120000F2D184F83F2008E094F840000128EBD1A7
:1012100084F8402001E084F841200122206800F099
:10122000A9FA0F492068884203D1426C42F4004277
:1012300042642068884208D0B0F1804F05D0094947
:10124000884202D00849884204D1816801F0070130
:10125000062903D0016841F001010160002010BDA2
:10126000002C0140000400400008004030B5044656
:101270000D460068002200F07DFA174B41F2111173
:1012800020688A10984209D1036A0B4206D1036A8A
:10129000134203D1436C23F4004343642068036A80
:1012A0000B4206D1016A114203D1016821F001010C
:1012B000016001203DB1042D08D0082D09D084F82B
:1012C0004100002030BD84F83E00FAE784F83F007A
:1012D000F7E784F84000F4E7002C0140FEE7000047
:1012E0003EB5002411480094019402940E49846094
:1012F000016004730475012505614FF460214460A9
:10130000C161FFF771F808B1FEF7EDFF0520CDE9E7
:101310000005694602940548FEF7E8FF002801D061
:10132000FEF7E1FF3EBD0000002401402400002044
:101330002DE9F04385B000242548009401940294DF
:101340000394816941F020018161816901F02001EC
:101350000491816941F004018161816901F0040116
:101360000491816941F0080181618069DFF864902E
:1013700000F0080043F2094504900022294648463F
:10138000FFF7F3F9DFF850804FF4004700223946A9
:101390004046FFF7EAF90095022601250396CDE9BC
:1013A000015469464846FFF7EBF800970396CDE9EC
:1013B000015469464046FFF7E3F8F020CDE9000408
:1013C000694648460294FFF7DBF805B0BDE8F083B4
:1013D00000100240000C01400008014010B58EB022
:1013E00000240794089409940A940B941C216846DD
:1013F0000C94FEF7E9FE1E484FF08041C0E900144E
:1014000040F65401C0E9024104618461FFF74EFDDA
:1014100008B1FEF768FF4FF48050079007A9144801
:10142000FFF790FD08B1FEF75EFF1148FFF7A2FE3F
:1014300008B1FEF758FF0B940BA90D480C94FFF769
:1014400001FD08B1FEF74FFF6020009040F22A40F6
:10145000CDE901040C22694605480494FFF724FEF7
:1014600008B1FEF740FF0248FFF7DAFD0EB010BDED
:101470005400002010B58EB00024079408940994FD
:101480000A940B941C2168460C94FEF79DFE1E489E
:101490001C49C0E9001440F65401C0E9024104614E
:1014A0008461FFF703FD08B1FEF71DFF4FF4805084
:1014B000079007A91448FFF745FD08B1FEF713FF91
:1014C0001148FFF757FE08B1FEF70DFF0B940BA96B
:1014D0000D480C94FFF7B6FC08B1FEF704FF60203E
:1014E0000090D520CDE901040C22694606480494F9
:1014F000FFF7DAFD08B1FEF7F6FE0348FFF790FDAF
:101500000EB010BD000400409C000020FEE700006B
:1015100070B50C211548FFF7A9FE0C211448FFF700
:10152000A5FE144C002201212046FFF71EF92515C7
:10153000002229462046FFF718F90120FFF70EF890
:10154000012229462046FFF710F9002201212046FA
:10155000FFF70BF90C210548FFF73AFE0649012079
:101560000870BDE8704000F05FB800005400002033
:101570009C000020000C01400000002070B50C21F0
:101580001548FFF773FE0C211448FFF76FFE144C4B
:10159000002201212046FFF7E8F825150022294600
:1015A0002046FFF7E2F80120FEF7D8FF012211469E
:1015B0002046FFF7DAF8002229462046FFF7D5F843
:1015C0000C210648FFF704FE064902200870BDE81A
:1015D000704000F029B80000540000209C0000205A
:1015E000000C01400000002010B50C210A48FFF754
:1015F0003DFE0C210948FFF739FE094C0122114636
:101600002046FFF7B2F8012291022046FFF7ADF81D
:1016100004490020087010BD540000209C000020E8
:10162000000C01400000002010480A2201464378C7
:10163000496833B1012B01D0022B11D001EB81019C
:1016400001E001EB4101B1FBF2F181600178012978
:1016500009D0022903D180680549096808647047E8
:10166000C1EBC101EFE780680249F6E70000002006
:101670009C00002054000020FEE770477047FFF7F1
:101680007FB830B593B028216846FEF79DFD142140
:101690000AA8FEF799FD0024022501200F9404906A
:1016A00000951020059012944FF46010CDE9084089
:1016B0001194109407956846FFF720FA08B172B6A6
:1016C000FEE70F20CDE90A054FF48060CDE90C401C
:1016D00002210AA80E94FFF753F908B172B6FEE78B
:1016E0004FF4004011900F950FA8FFF7D3F8002892
:1016F00001D072B6FEE713B030BD7047F0B5026896
:10170000194B1A4C1A4D4FF08047984205D0B842F9
:1017100003D0A04201D0A84203D122F070064A684B
:101720003243984205D0B84203D0A04201D0A8422B
:1017300003D122F44074CA6822434C6922F080022B
:10174000224302608A68C2620A688262984201D1BA
:1017500009690163012141610169C90703D0016978
:1017600021F001010161F0BD002C014000040040A6
:101770000008004010B501F01F030121046A9940E0
:101780008C430462016A9A401143016210BD10B596
:10179000846842EA032224F47F440A43224382609D
:1017A00010BD826822F070020A4342F00701816096
:1017B0007047000030B5036A026A22F0010202623B
:1017C0004268846924F073050C682C4323F00205F9
:1017D0008B682B430A4DA8420BD123F00805CB6838
:1017E00022F440722B434D6923F0040315438A69A8
:1017F0002A434260846149684163036230BD00004E
:10180000002C014030B5026A036A23F01003036222
:10181000436884690D6824F4E64444EA05248D682D
:1018200022F0200242EA05120B4DA8420ED1CD68EB
:1018300022F0800242EA05124D6923F4406343EA34
:1018400085038D6922F0400243EA85034360846189
:1018500049688163026230BD002C014030B5036AE3
:10186000026A22F4807202624268C46923F400733F
:1018700024F073050C682C438D6843EA05230C4D56
:10188000A8420ED1CD6823F4006343EA05234D69D5
:1018900022F4405242EA05128D6923F4806342EA41
:1018A00005124260C4614968C163036230BD000033
:1018B000002C014030B5046A026A22F480520262B0
:1018C0004268C3690D6823F4E64343EA05238D6843
:1018D00024F4005444EA0534064DA84204D14D696D
:1018E00022F4804242EA85124260C3614968016481
:1018F000046230BD002C014010B5036A046A24F074
:1019000001040462846924F0F00444EA021423F020
:101910000A020A438461026210BD10B5036A046AB8
:1019200024F010040462846923F0A00324F47044BA
:1019300044EA023243EA01118261016210BD0000F3
:101940002DE9F041FEF716FF264901254FF47A7282
:101950000F7853102C462E46012F13D0022F29D07A
:1019600000228A70CA70C86008612A464FF400419C
:101970001D48FEF7FAFE2246BDE8F04108211B484B
:10198000FEF7F3BE4D7825B1012D01D08E700BE02E
:101990001A46CB68C31A934204D3C860887828B12A
:1019A00000208870887818B10025DEE70120F8E76C
:1019B0000125DAE74C7824B1012C01D0CE700BE080
:1019C0001A460B69C31A934204D30861C87828B138
:1019D0000020C870C87818B10024C6E70120F8E7D5
:1019E0000124C2E70000002000080140000C014073
:1019F000FEE70907090E002804DB00F1E02080F86B
:101A00000014704700F00F0000F1E02080F8141D72
:101A100070470000FEF7BCFEFFF733FEFFF788FCBF
:101A2000FFF75EFCFFF7DAFCFFF724FD2C480068A7
:101A3000C06A2C4C606010B940F654006060FFF73B
:101A4000F3FDFFF7D1FD0122D1032748FEF78DFEFC
:101A5000264D012208212846FEF787FE1021284640
:101A6000FEF77EFE68B92078012802D0022803D054
:101A700004E0FFF783FD01E0FFF74AFDC820FEF711
:101A80006DFD20212846FEF76BFE48B961780229DA
:101A900003D2491C6170FFF7C7FDC820FEF75EFD49
:101AA00040212846FEF75CFE40B9617819B1491E15
:101AB0006170FFF7B9FDC820FEF750FD8021284670
:101AC000FEF74EFE30B9207838B1FFF78DFDC82003
:101AD000FEF744FDFFF734FFC0E7FFF719FDF6E717
:101AE000540000200000002000080140000C0140CC
:101AF000010202030405060708090A0B0C0D0E0F6C
:101B0000101000000000000000000102030406079E
:101B100008090000341B0008000000202400000019
:101B200028010008581B000824000020240700009A
:101B30004401000800010000000000000000000057
:101B40000000000000000000010000001000000084
:081B50000000000000127A0001
:04000005080000ED02
:00000001FF
